:100000000C94E0000C9408010C9408010C943C073B
:100010000C943C070C943C070C9408010C940801C8
:100020000C9408010C9408010C9408010C9408012C
:100030000C9408010C9408010C9408010C9408011C
:100040000C94F2060C9408010C94C0060C949A06C9
:100050000C9408010C9408010C9408010C940801FC
:100060000C9408010C94080100407A10F35A00A087
:10007000724E18090010A5D4E80000E87648170071
:1000800000E40B54020000CA9A3B000000E1F505B1
:10009000000080969800000040420F000000A086FB
:1000A00001000000102700000000E803000000002D
:1000B0006400000000000A000000000001000000D1
:1000C00000002C76D888DC674F0823DFC1DFAE59EB
:1000D000E1B1B796E5E3E453C63AE651997696E87E
:1000E000E6C28426EB898C9B62ED407C6FFCEFBC02
:1000F0009C9F40F2BAA56FA5F490055A2AF75C932D
:100100006B6CF9676DC11BFCE0E40D47FEF520E662
:10011000B500D0ED902E0300943577050080841E45
:10012000080000204E0A000000C80C333333330FA0
:10013000986E12831141EF8D2114893BE65516CF3D
:10014000FEE6DB18D1844B381BF77C1D901DA4BB49
:10015000E424203284725E228100C9F124ECA1E5FE
:100160003D2700000000240027002A0000000008AE
:10017000000201000003040700000000000000006E
:1001800000000000230026002900000000002500D8
:1001900028002B00040404040404040402020202E4
:1001A000020203030303030301020408102040803A
:1001B000010204081020010204081020B407870B74
:1001C00011241FBECFEFD8E0DEBFCDBF23E0AAEAE7
:1001D000B2E001C01D92A93DB207E1F712E0A0E034
:1001E000B1E0E0EDF4E202C005900D92AA3AB10749
:1001F000D9F710E0CFEDD0E004C02197FE010E94B6
:100200006310CE3DD107C9F70E948A080C945B1297
:100210000C9400000895AF92BF92CF92DF92EF92BC
:10022000FF920F931F93CF93DF936C017B018B01A0
:10023000040F151FEB015E01AE18BF08C017D107F0
:1002400059F06991D601ED91FC910190F081E02D7A
:10025000C6010995892B79F7C501DF91CF911F91CF
:100260000F91FF90EF90DF90CF90BF90AF900895E7
:10027000FC0144815581608171818EE993E00C9489
:100280000B01FC01538D448D252F30E0842F90E02D
:10029000821B930B541710F0CF9608950197089581
:1002A000FC01918D828D981761F0A28DAE0FBF2F4A
:1002B000B11D5D968C91928D9F5F9F73928F90E0A0
:1002C00008958FEF9FEF0895FC01918D828D98170F
:1002D00031F0828DE80FF11D858D90E008958FEF4C
:1002E0009FEF0895FC01918D228D892F90E0805C15
:1002F0009F4F821B91098F739927089581E093E0A6
:100300000E94720121E0892B09F420E0822F0895D8
:1003100080E090E0892B29F00E947E0181110C94ED
:1003200000000895FC01A48DA80FB92FB11DA35A98
:10033000BF4F2C91848D90E001968F739927848F05
:10034000A689B7892C93A089B1898C918370806428
:100350008C93938D848D981306C00288F389E02DC9
:1003600080818F7D80830895EF92FF920F931F937A
:10037000CF93DF93EC0181E0888F9B8D8C8D981358
:100380001AC0E889F989808185FF15C09FB7F89464
:10039000EE89FF896083E889F989808183708064B0
:1003A00080839FBF81E090E0DF91CF911F910F91FB
:1003B000FF90EF900895F62E0B8D10E00F5F1F4F0A
:1003C0000F731127E02E8C8D8E110CC00FB607FC19
:1003D000FACFE889F989808185FFF5CFCE010E94A7
:1003E0009201F1CFEB8DEC0FFD2FF11DE35AFF4F82
:1003F000F0829FB7F8940B8FEA89FB898081806235
:10040000CFCFCF93DF93EC01888D8823B9F0AA89F1
:10041000BB89E889F9898C9185FD03C0808186FDBF
:100420000DC00FB607FCF7CF8C9185FFF2CF80810E
:1004300085FFEDCFCE010E949201E9CFDF91CF91F0
:10044000089590E0FC01E459FE4F2491FC01E85529
:10045000FE4F3491FC01EC56FE4FE491EE23C9F0BF
:10046000222339F0233001F1A8F4213019F1223090
:1004700029F1F0E0EE0FFF1FE657FE4FA591B49172
:100480008FB7F894EC91611126C030953E233C93D0
:100490008FBF08952730A9F02830C9F0243049F7DC
:1004A000809180008F7D03C0809180008F77809342
:1004B0008000DFCF84B58F7784BDDBCF84B58F7D9F
:1004C000FBCF8091B0008F778093B000D2CF809126
:1004D000B0008F7DF9CF3E2BDACFCF93DF9390E042
:1004E000FC01E855FE4F24918C569E4FFC018491EF
:1004F0008823D1F090E0880F991FFC01EE59FE4F40
:10050000A591B491FC01E657FE4FC591D4916111BC
:100510000EC09FB7F8948C91E22FE0958E238C93B8
:100520002881E223E8839FBFDF91CF9108958FB7A1
:10053000F894EC91E22BEC938FBFF6CF806480931C
:100540007C0080917A00806480937A0080917A00A8
:1005500086FDFCCF809178009091790008953FB797
:10056000F8948091EF029091F002A091F102B09185
:10057000F20226B5A89B05C02F3F19F00196A11DD8
:10058000B11D3FBFBA2FA92F982F8827BC01CD01DD
:10059000620F711D811D911D42E0660F771F881F3C
:1005A000991F4A95D1F708958F929F92AF92BF926B
:1005B000CF92DF92EF92FF924B015C010E94AF025B
:1005C0006B017C010E94AF026C197D098E099F09A5
:1005D000683E734081059105A8F321E0821A9108D5
:1005E000A108B10888EEC80E83E0D81EE11CF11CFA
:1005F00081149104A104B10429F7FF90EF90DF90DA
:10060000CF90BF90AF909F908F9008952091EC0273
:100610003091ED022817390771F49091EB02809127
:10062000EA02981741F0E091EB02F0E0E655FD4F49
:10063000808190E008958FEF9FEF08950895EF92E5
:10064000FF920F931F93CF93DF93DC015C96ED90A5
:10065000FC905D97E114F10479F481E090E0139649
:100660009C938E93129790E080E0DF91CF911F9141
:100670000F91FF90EF9008955196ED91FC91529754
:1006800050968C915097982F90950FB75E962C911D
:100690005E97122F127021FD6095F894208111232E
:1006A00019F1282B2083E7012197F1F728E0462F45
:1006B00050E0308160FF1AC0382B3083E70121976A
:1006C000F1F7BA0175956795215089F7112381F0EB
:1006D0008081892380830FBF5C968D919C910197C7
:1006E000F1F781E090E0C1CF2923DCCF3923E5CFBA
:1006F0009081892BEFCF2091EC023091ED022817E9
:10070000390771F48091EA022091EB0290E0805C5D
:100710009F4F821B910960E470E00E943B10089596
:1007200090E080E008952091EC023091ED022817CE
:100730003907B9F49091EB028091EA02981789F099
:10074000E091EB02F0E0E655FD4F80812091EB0255
:1007500030E02F5F3F4F2F7333272093EB0290E061
:1007600008958FEF9FEF08952FB7F8948091FD02C1
:100770009091FE02A091FF02B09100032FBF8093E1
:10078000BE039093BF03A093C003B093C10386EB55
:1007900093E00E94930397FF26C02FB7F8948091AF
:1007A000FD029091FE02A091FF02B09100032FBFC5
:1007B0004091BE035091BF036091C0037091C1038B
:1007C000841B950BA60BB70B4091BA035091BB034A
:1007D0006091BC037091BD0384179507A607B70706
:1007E000B0F28FEF9FEF089590E080E00895CF93EF
:1007F000DF93EC0160E08E810E94210261E08E8136
:100800000E94210260E08E810E9421028BE891E02B
:100810000197F1F7DF91CF910895CF92DF92EF9298
:10082000FF920F931F93CF93DF936C017C0187E0BE
:10083000E80EF11CD0E0C0E0062F10E0B8010C2E4D
:1008400002C0759567950A94E2F76170F70181918E
:100850007F010E9421022196C430D10579F7C6019B
:10086000DF91CF911F910F91FF90EF90DF90CF908C
:100870000C94F703CF92DF92EF92FF920F931F93A6
:10088000CF93DF93EC01F62E642F8C810E9421021E
:100890008D818F3F19F060E00E9421020F2D10E042
:1008A0008F8584FF25C06E0187E0C80ED11CF12C16
:1008B000E12CB8010E2C02C0759567950A94E2F7F9
:1008C0006170F60181916F010E942102FFEFEF1A22
:1008D000FF0A88E0E816F10461F7CE01DF91CF91BD
:1008E0001F910F91FF90EF90DF90CF900C94F70342
:1008F000B80184E0759567958A95E1F7CE010E946D
:100900000D046F2DCE01DF91CF911F910F91FF90BC
:10091000EF90DF90CF900C940D0440E0682F8EE9AB
:1009200093E00C943A0481E00E948D048BE39FE1F4
:100930000197F1F70895CF93DF93823029F49091D6
:10094000AD0398609093AD038093B1031092B2030E
:1009500080E48093B30380E18093B40380E58093C7
:10096000B50361E08091A2030E946D028091A30310
:100970008F3F19F061E00E946D0261E08091A40355
:100980000E946D02CEE9D3E09E012E593340809142
:10099000AD0384FD0BC084E090E021962817390751
:1009A00044F461E08E810E946D02EECF88E090E019
:1009B000F4CF8BE39DE00197F1F760E08091A20313
:1009C0000E94210260E08091A4030E942102809194
:1009D000A3038F3F19F060E00E9421028091AD03D4
:1009E00084FD34C063E08EE993E00E940D04CBE403
:1009F000D6E4CE010197F1F763E08EE993E00E941F
:100A00000D042197F1F763E08EE993E00E940D0455
:100A100083E592E00197F1F762E08EE993E00E94AE
:100A20000D048091AD0380620E948D0484E0809368
:100A3000AE038CE00E948D040E94930482E08093B8
:100A4000AF0386E0DF91CF910C948D0480620E9409
:100A50008D048BE496E40197F1F78091AD038062F9
:100A60000E948D0483E592E00197F1F78091AD0338
:100A700080620E948D04D5CF9091B103891710F048
:100A80008FEF890FE82FF0E0E256FC4F84898068F1
:100A90000C948D0441E00E943A0481E090E00895B6
:100AA000FB0101900020E9F73197AF01461B570B7E
:100AB000DC01ED91FC910280F381E02D0994FC01B1
:100AC00001900020E9F73197AF01481B590BBC0199
:100AD0008EE993E00C940B01FC01808191810097D9
:100AE00011F00C94051108950F931F93CF93DF938A
:100AF0008C01EB01FC01808191810097E1F068811C
:100B0000798161157105A9F0428153812C813D8164
:100B10004217530770F00E9454128C819D81F80196
:100B2000958384831D821C82DF91CF911F910F9149
:100B300008950E94051188819981F801918380832D
:100B40008A819B81938382838C819D819583848319
:100B5000198218821B821A82E5CFFC018081918163
:100B6000009711F00C94C10B60E070E0CB01089588
:100B70000F931F93CF93DF93EC01888199810097A6
:100B800059F02A813B812617370730F081E0DF9149
:100B9000CF911F910F9108958B016F5F7F4F0E943E
:100BA0008E11009759F0998388831B830A832C81C7
:100BB0003D81232B59F7FC011082E8CF80E0E7CF7D
:100BC000EF92FF920F931F93CF93DF93EC017B0182
:100BD0008A01BA010E94B80528813981811114C0A7
:100BE0002115310519F0C9010E94051119821882D9
:100BF0001D821C821B821A82CE01DF91CF911F9130
:100C00000F91FF90EF9008951D830C83B701C901E8
:100C10000E945412F1CFEF92FF920F931F93CF9344
:100C2000DF93CDB7DEB7A1970FB6F894DEBF0FBE46
:100C3000CDBF7C01CB01BA01F70111821082138272
:100C40001282158214828E010F5F1F4F22E044E052
:100C50000E94A30B0097C9F0FC0101900020E9F766
:100C60003197AF01481B590BBC01C7010E94E00539
:100C7000A1960FB6F894DEBF0FBECDBFDF91CF9126
:100C80001F910F91FF90EF900895F701808191815E
:100C9000009711F00E940511F70111821082158250
:100CA000148213821282E4CFEF92FF920F931F936C
:100CB000CF93DF9300D0CDB7DEB78C01FC0111825A
:100CC0001082138212821582148250E040E069E49F
:100CD00071E00E94E0050E94B40397FD21C08E32AE
:100CE0009105F1F089831A82F801E480F580FFEF25
:100CF000EF1AFF0AB701C8010E94B805882359F30B
:100D0000F8012081318184819581BE016F5F7F4F21
:100D1000820F931F0E945412F801F582E482DBCF08
:100D2000C8010F900F90DF91CF911F910F91FF900D
:100D3000EF9008951F920F920FB60F9211242F93E8
:100D40003F934F935F936F937F938F939F93AF9353
:100D5000BF93EF93FF9381E093E00E949201FF9194
:100D6000EF91BF91AF919F918F917F916F915F9123
:100D70004F913F912F910F900FBE0F901F9018959C
:100D80001F920F920FB60F9211242F938F939F9360
:100D9000EF93FF93E0911103F09112038081E091B2
:100DA0001703F091180382FD1BC0908180911A03F4
:100DB0008F5F8F7320911B03821741F0E0911A031C
:100DC000F0E0EF5FFC4F958F80931A03FF91EF9156
:100DD0009F918F912F910F900FBE0F901F9018959C
:100DE0008081F4CF1F920F920FB60F9211242F9390
:100DF0003F938F939F93AF93BF938091FD02909108
:100E0000FE02A091FF02B09100033091EE0223E0B8
:100E1000230F2D3758F50196A11DB11D2093EE0229
:100E20008093FD029093FE02A093FF02B093000313
:100E30008091EF029091F002A091F102B091F20244
:100E40000196A11DB11D8093EF029093F002A09333
:100E5000F102B093F202BF91AF919F918F913F91B8
:100E60002F910F900FBE0F901F90189526E8230F1B
:100E70000296A11DB11DD2CF1F920F920FB60F92F5
:100E800011242F933F934F935F936F937F938F938F
:100E90009F93AF93BF93EF93FF93E091EC02F09198
:100EA000ED02309749F0A685B7858585968D91FF2F
:100EB00014C09C918923A1F4FF91EF91BF91AF9150
:100EC0009F918F917F916F915F914F913F912F9162
:100ED0000F900FBE0F901F9018959C91892361F77A
:100EE000A389B4899C918589809589238C9386896F
:100EF00097890197F1F7608D718DA685B785558526
:100F000038E020E0CB010197F1F7822F90E0959532
:100F10008795282F4C91452309F02068315091F78F
:100F2000868D81FD20958091EA0290E001968F7375
:100F300099273091EB02381799F0A091EA02B0E0BE
:100F4000A655BD4F2C938093EA02828D938D019715
:100F5000F1F7A389B4898C919589892B8C93ACCFB7
:100F6000868D8160868FF1CF109204031092030367
:100F700088EE93E0A0E0B0E0809305039093060331
:100F8000A0930703B093080326E131E030930203F6
:100F90002093010325EC30E030930E0320930D03E2
:100FA00024EC30E03093100320930F0320EC30E06A
:100FB000309312032093110321EC30E0309314039B
:100FC0002093130322EC30E0309316032093150393
:100FD00026EC30E0309318032093170310921A0385
:100FE00010921B0310921C0310921D031092B90360
:100FF0001092B8038093BA039093BB03A093BC03F1
:10100000B093BD0384E391E09093B7038093B6035C
:101010001092CD031092CC031092CF031092CE0306
:101020001092D1031092D0031092D3031092D203E6
:101030006091D4036E7F6D7F6093D4036695617079
:1010400081E068278BE00E94210261E08BE00E9432
:101050006D02E3EBF1E0E491E093C603EFE9F1E028
:10106000E491F0E0EE0FFF1FE657FE4F859194915B
:101070009093C8038093C70360E08AE00E946D02EA
:101080008091D40381FD04C061E08AE00E942102C6
:101090008AE08093C203E2EBF1E0E491E093C303C2
:1010A000EEE9F1E0E491F0E0EE0FFF1FE058FE4FB3
:1010B000859194919093C5038093C4031092A103EA
:1010C0001092A00388E291E090939F0380939E0387
:1010D0008CE08093A2038FEF8093A3038BE0809337
:1010E000A40385E08093A50384E08093A60383E0B6
:1010F0008093A70382E08093A8031092A903109223
:10110000AA031092AB031092AC031092AD0381E0DE
:101110000C949B04CF93DF93CDB7DEB7A4970FB6A3
:10112000F894DEBF0FBECDBF789484B5826084BDD5
:1011300084B5816084BD85B5826085BD85B58160DB
:1011400085BD80916E00816080936E001092810059
:101150008091810082608093810080918100816014
:1011600080938100809180008160809380008091D5
:10117000B10084608093B1008091B0008160809361
:10118000B00080917A00846080937A0080917A0028
:10119000826080937A0080917A00816080937A00E7
:1011A00080917A00806880937A001092C10082E07A
:1011B0000E949B0460E085E00E946D0260E080E098
:1011C0000E946D0260E081E00E946D0261E086E0B5
:1011D0000E946D0260E086E00E942102E09111030E
:1011E000F091120382E08083E0910D03F0910E03F1
:1011F0001082E0910F03F09110038FEC8083109226
:101200001903E0911503F091160386E08083E091C5
:101210001303F0911403808180618083E0911303B4
:10122000F0911403808188608083E0911303F09132
:101230001403808180688083E0911303F09114038C
:1012400080818F7D80838E010F5F1F4F50E0C52E00
:1012500050E0D52E86EB93E00E947B03892B09F4A6
:101260006FC0CE0143960E945406CE0143960E9461
:10127000AD0570930B0160930A01C8010E945406EA
:10128000B801CE0143960E947405C8010E946C0506
:10129000CE0143960E94AD05709309016093080149
:1012A000C8010E945406B801CE0143960E947405FD
:1012B000C8010E946C05CE0143960E94AD05709353
:1012C000070160930601C8010E945406B801CE01CF
:1012D00043960E947405C8010E946C05CE01439696
:1012E0000E94AD057093050160930401C8010E943E
:1012F0005406B801CE0143960E947405C8010E94AD
:101300006C05CE0143960E94AD0570930301609376
:101310000201C8010E945406B801CE0143960E9402
:101320007405C8010E946C05CE0143960E94AD056C
:101330007093010160930001CE0143960E946C05F9
:1013400085E00E949E02BC01990F880B990B0E94B8
:10135000700E20E030E040E85AE30E94CF0E20E01B
:1013600030E44CE955E40E94CF0E20E030E040E24A
:1013700051E40E94C40FAB01BC014093F9025093A9
:10138000FA026093FB027093FC02CE014F960E941A
:101390000B0680E00E949E02BC01990F880B990BFE
:1013A0000E94700EAB01BC014093F5025093F6020F
:1013B0006093F7027093F802CE0149960E940B06E3
:1013C00061E086E00E94210264EF71E080E090E03D
:1013D0000E94D40281E00E949E029093F4028093C6
:1013E000F3021C8A1B8A1E8A1D8A188E1F8A4AE0F5
:1013F000B8010E94E80BF80101900020E9F731974D
:10140000AF01401B510BB801CE0143960E94E0058D
:1014100081E00E949E029093F4028093F30260E0C8
:1014200086E00E94210260910A0170910B01072E53
:10143000000C880B990B0E94700E2091F9023091DC
:10144000FA024091FB025091FC020E943610F12CEE
:10145000E12C18163CF580E00E943C050E949304A4
:10146000CE014F960E94380182E491E00E945F0510
:1014700085E491E00E945F0581E00E943C058AE4DA
:1014800091E00E945F056BE571E086EB93E00E94BE
:1014900050056CED75E080E090E00E94D402EE24EF
:1014A000E394F12C6091080170910901072E000C62
:1014B000880B990B0E94700E2091F9023091FA026C
:1014C0004091FB025091FC020E94690E87FF27C0E9
:1014D00080E00E943C050E949304CE014F960E943A
:1014E000380182E491E00E945F0582E791E00E946A
:1014F0005F0581E00E943C0589E791E00E945F055D
:1015000069E871E086EB93E00E9450056CED75E0B0
:1015100080E090E00E94D402EE24E394F12C6091EC
:10152000020170910301072E000C880B990B0E9499
:10153000700E2091F5023091F6024091F702509121
:10154000F8020E94361018161CF580E00E943C0537
:101550000E949304CE0149960E94380185EC91E0E7
:101560000E945F0581E00E943C058BEC91E00E94A7
:101570005F056CED71E086EB93E00E9450056CED29
:1015800075E080E090E00E94D402EE24E394F12C18
:101590006091000170910101072E000C880B990BDE
:1015A0000E94700E2091F5023091F6024091F702F0
:1015B0005091F8020E94690E87FF23C080E00E94CC
:1015C0003C050E949304CE0149960E94380188EFA1
:1015D00091E00E945F0581E00E943C058EEF91E062
:1015E0000E945F056FE072E086EB93E00E94500579
:1015F0006CED75E080E090E00E94D402EE24E3946C
:10160000F12C2091F3023091F40280910601909127
:101610000701281739071CF580E00E943C050E944D
:101620009304CE0143960E94380186E292E00E9424
:101630005F0581E00E943C058CE292E00E945F051C
:1016400068E372E086EB93E00E9450056CED75E074
:1016500080E090E00E94D402EE24E394F12C2091EB
:10166000F3023091F40280910401909105018217F8
:101670009307C4F580E00E943C050E949304CE01CC
:1016800043960E94380182E692E00E945F0581E065
:101690000E943C0588E692E00E945F0565E772E0E3
:1016A00086EB93E00E9450056CED75E080E090E0E1
:1016B0000E94D402CE0143960E946C05CE01499649
:1016C0000E946C05CE014F960E946C05C114D10496
:1016D00009F4C0CD0E947E01882309F4BBCD0E948D
:1016E0000000B8CDEF2831F780E00E943C050E9451
:1016F000930486E892E00E945F0581E00E943C0529
:101700008BE892E00E945F0569E972E0C9CF84E34B
:1017100091E09093B7038093B6038091EC0290918F
:10172000ED02865B934071F4E091C903F091CA0326
:1017300090818091CB038095892380831092ED0264
:101740001092EC020895EF920F931F93CF93DF93C3
:10175000E80134E047FD34E1042E000C550B57FF3F
:1017600003C0519541955109E32E022F242FAE015C
:101770000E94220CCE01DF91CF911F910F91EF902B
:1017800008951F93FC0199278827BC01E8941191C3
:101790001032E9F3193010F01E30C8F31B3251F04B
:1017A0001D3249F4689406C00E94F30B610F711D4D
:1017B000811D911D119110531A30B0F33EF4909594
:1017C0008095709561957F4F8F4F9F4F1F91089522
:1017D000BB274A3031F4992322F4BDE290958195DC
:1017E0009F4F0C94090C592F482F372F262F660F27
:1017F000771F881F991F660F771F881F991F620F19
:10180000731F841F951F660F771F881F991F0895E8
:10181000BB27FB015527AA27880F991FAA1FA417CA
:1018200010F0A41B83955051B9F7A05DAA3308F0BE
:10183000A95DA193009779F7B111B1931192CB01F2
:101840000C94590EA9E0B0E0E8E2FCE00C94930F90
:101850006A01F22EB02E102FFBE3AF2EA01608F473
:101860001BE31F5F012F27E0AE014F5F5F4F0E9418
:10187000810DBC018981982F9970913009F43FC086
:101880009BE2E1FC04C09E2D9170E0FC3AC05E2D0D
:101890005071E82FE87083FF46C084E0911101C0C9
:1018A00083E0EF2DE81B8F1508F0E0E0D6018E2FC6
:1018B00020E2552351F1992329F0D6019C93C601CA
:1018C00001966C0196012D5F3F4FE2FE24C08EE42D
:1018D000D6018C9391E411969C93119712968C9358
:1018E000D9018E2F90E281111BC0E20FF32FF11D61
:1018F00010828EEF9FEF2996ECE00C94AF0F9DE2E3
:10190000C6CF90E2C4CF2D9381508111FCCFCE0E73
:10191000D11CE0E0D0CF8EE6D6018C9391E6DBCFF0
:101920009D938150E0CF482F447082FF3DC084E0FA
:10193000911101C083E08F1510F4EF2DE81BD60143
:101940008E2F20E2552309F1992329F0D6019C938B
:10195000C60101966C0196012D5F3F4FE2FE1BC050
:1019600089E4D6018C938EE411968C93119786E4CA
:1019700012968C93D9018E2F90E2882309F4B5CF6B
:101980009D938150FACF2D9381508111FCCFCE0EC3
:10199000D11CE0E0D9CF89E6D6018C938EE6119672
:1019A0008C93119786E6E4CF9B0177FF02C030E06D
:1019B00020E0A1E0B0E0911102C0B0E0A0E0F901A8
:1019C0003196AE0FBF1F8B2C912CBB2009F461C048
:1019D0005401EFEFAE1ABE0AAA0DBB1DFA161B0684
:1019E00019F014F04F2D4A1B511188C0E3FC59C067
:1019F0007601A42FB0E2A1114FC0C40ED11C9923CF
:101A000009F45BC040E0D6011196F60190836D01A8
:101A1000552309F448C0012F060F9A81582F5071A1
:101A200084FF03C0913309F4015010160CF047C035
:101A3000093008F008E0EEE2FE2E5B01A01AB108C2
:101A400085019194819491082F3F320729F4D601A2
:101A5000FC92F60131966F016217730794F1021739
:101A600013077CF5DB01A21BB30BAA24A394B12CB2
:101A7000AC0EBD1EAA0DBB1D11968C9121503109D3
:101A8000D601119628153905F4F0F60180836D0111
:101A9000DBCFB12CA12CA0CFF701B1937F01A150D6
:101AA000AACF9111B0CFD601942F50E302C05D931D
:101AB00091509111FCCFC40ED11C40E0ACCF01E09D
:101AC000BACF80E3DBCF6217730731F4963388F423
:101AD000953311F4552369F0F6018083FD01842FBD
:101AE00090E2811108C0A40FB11D1C9290E080E02B
:101AF00002CF81E3F1CF91938150F3CF911183CF46
:101B00008ACF283008F027E03327DA01990F311DFA
:101B100087FD916000966105710539F432602E5F92
:101B20003D9330E32A95E1F708959F3F30F08038E8
:101B30007105610509F03C5F3C5F3D93913008F011
:101B40008068911DDF93CF931F930F93FF92EF92C5
:101B5000192F987F9695E92F96959695E90FFF276F
:101B6000EE53FF4F99273327EE24FF24A701E70107
:101B700005900894079428F4360FE71EF81E491FB5
:101B8000511D660F771F881F991F0694A1F70590B6
:101B9000079428F4E70EF81E491F561FC11D770F42
:101BA000881F991F661F0694A1F70590079428F4D3
:101BB000F80E491F561FC71FD11D880F991F661F9A
:101BC000771F0694A1F70590079420F4490F561F3C
:101BD000C71FD81F990F661F771F881F0694A9F784
:101BE00084911095177041F0D695C79557954795F4
:101BF000F794E7941A95C1F7E8E6F0E06894159039
:101C0000159135916591959105907FE27395E11855
:101C1000F10A430B560BC90BD009C0F7E10CF11EBA
:101C2000431F561FC91FD01D7EF4703311F48A95CF
:101C3000E6CFE894015030F0080F0AF400270217AD
:101C400008F4202F2395022F7A3328F079E37D932F
:101C50002A95E9F710C07D932A9589F60694979501
:101C60006795379517951794E118F10A430B560BB2
:101C7000C90BD00998F023957E9173957A3308F0BB
:101C800070E37C932013B8F77E9170617D9330F000
:101C9000839571E37D9370E32A95E1F71124EF902A
:101CA000FF900F911F91CF91DF91992787FD90951C
:101CB0000895DC01FC01672F71917723E1F73297DA
:101CC00004C07C916D9370836291AE17BF07C8F317
:101CD00008950E94AB0E08F481E00895E89409C0CD
:101CE00097FB3EF490958095709561957F4F8F4F4F
:101CF0009F4F9923A9F0F92F96E9BB279395F69565
:101D0000879577956795B795F111F8CFFAF4BB0FE2
:101D100011F460FF1BC06F5F7F4F8F4F9F4F16C046
:101D2000882311F096E911C0772321F09EE8872FD0
:101D3000762F05C0662371F096E8862F70E060E08C
:101D40002AF09A95660F771F881FDAF7880F969505
:101D5000879597F90895990F0008550FAA0BE0E8A9
:101D6000FEEF16161706E807F907C0F0121613065D
:101D7000E407F50798F0621B730B840B950B39F49D
:101D80000A2661F0232B242B252B21F408950A2603
:101D900009F4A140A6958FEF811D811D08950E9431
:101DA000E20E0C94530F0E94450F38F00E944C0F26
:101DB00020F0952311F00C943C0F0C94420F112449
:101DC0000C94870F0E94640F70F3959FC1F3950FD9
:101DD00050E0551F629FF001729FBB27F00DB11DAF
:101DE000639FAA27F00DB11DAA1F649F6627B00D3F
:101DF000A11D661F829F2227B00DA11D621F739F28
:101E0000B00DA11D621F839FA00D611D221F749F35
:101E10003327A00D611D231F849F600D211D822F7C
:101E2000762F6A2F11249F5750409AF0F1F08823A3
:101E30004AF0EE0FFF1FBB1F661F771F881F9150D0
:101E40005040A9F79E3F510580F00C943C0F0C9434
:101E5000870F5F3FE4F3983ED4F3869577956795B7
:101E6000B795F795E7959F5FC1F7FE2B880F911DFA
:101E70009695879597F9089597F99F6780E870E0A0
:101E800060E008959FEF80EC089500240A941616F0
:101E9000170618060906089500240A941216130658
:101EA000140605060895092E0394000C11F48823E6
:101EB00052F0BB0F40F4BF2B11F460FF04C06F5F02
:101EC0007F4F8F4F9F4F089557FD9058440F551FD8
:101ED00059F05F3F71F04795880F97FB991F61F0AC
:101EE0009F3F79F087950895121613061406551F23
:101EF000F2CF4695F1DF08C0161617061806991F8F
:101F0000F1CF86957105610508940895E894BB2783
:101F100066277727CB0197F908952F923F924F922A
:101F20005F926F927F928F929F92AF92BF92CF9269
:101F3000DF92EF92FF920F931F93CF93DF93CDB772
:101F4000DEB7CA1BDB0B0FB6F894DEBF0FBECDBFEA
:101F500009942A88398848885F846E847D848C84BB
:101F60009B84AA84B984C884DF80EE80FD800C81C4
:101F70001B81AA81B981CE0FD11D0FB6F894DEBFA7
:101F80000FBECDBFED0108950E94D80F0C94530FE2
:101F90000E944C0F58F00E94450F40F029F45F3F1B
:101FA00029F00C943C0F51110C94870F0C94420FA4
:101FB0000E94640F68F39923B1F3552391F3951BA5
:101FC000550BBB27AA2762177307840738F09F5F5A
:101FD0005F4F220F331F441FAA1FA9F335D00E2EC7
:101FE0003AF0E0E832D091505040E695001CCAF734
:101FF0002BD0FE2F29D0660F771F881FBB1F2617F7
:1020000037074807AB07B0E809F0BB0B802DBF01CD
:10201000FF2793585F4F3AF09E3F510578F00C949C
:102020003C0F0C94870F5F3FE4F3983ED4F3869502
:1020300077956795B795F7959F5FC9F7880F911DBD
:102040009695879597F90895E1E0660F771F881FA9
:10205000BB1F621773078407BA0720F0621B730B5C
:10206000840BBA0BEE1F88F7E09508950E94AB0E23
:1020700008F48FEF089597FB072E16F4009407D00D
:1020800077FD09D00E944F1007FC05D03EF49095D3
:1020900081959F4F0895709561957F4F0895AA1B74
:1020A000BB1B51E107C0AA1FBB1FA617B70710F043
:1020B000A61BB70B881F991F5A95A9F78095909575
:1020C000BC01CD010895EE0FFF1F0590F491E02DA6
:1020D00009940F931F93CF93DF938230910510F4EF
:1020E00082E090E0E091D703F091D80330E020E067
:1020F000B0E0A0E0309799F42115310509F44AC009
:10210000281B390B24303105D8F58A819B81611554
:10211000710589F1FB0193838283FE0111C0408127
:1021200051810281138148175907E0F04817590778
:1021300099F4109761F012960C93129713961C93D2
:102140003296CF01DF91CF911F910F9108950093A7
:10215000D7031093D803F4CF2115310551F042175E
:10216000530738F0A901DB019A01BD01DF01F80135
:10217000C1CFEF01F9CF9093D8038093D703CDCF90
:10218000FE01E20FF31F81939193225031093983AD
:102190002883D7CF2091D5033091D603232B41F448
:1021A00020910E0130910F013093D6032093D50377
:1021B00020910C0130910D012115310541F42DB70D
:1021C0003EB74091100150911101241B350BE09155
:1021D000D503F091D603E217F307A0F42E1B3F0BB3
:1021E0002817390778F0AC014E5F5F4F2417350789
:1021F00048F04E0F5F1F5093D6034093D503819351
:1022000091939FCFF0E0E0E09CCFCF93DF930097D6
:10221000E9F0FC01329713821282A091D703B091AA
:10222000D803ED0130E020E01097A1F42081318146
:10223000820F931F2091D5033091D60328173907B9
:1022400009F061C0F093D603E093D503DF91CF91FD
:102250000895EA01CE17DF07E8F54A815B819E0108
:1022600041155105B1F7E901FB83EA834991599181
:10227000C40FD51FEC17FD0761F480819181029690
:10228000840F951FE90199838883828193819B83C1
:102290008A83F0E0E0E012968D919C91139700976D
:1022A000B9F52D913C911197CD010296820F931FA4
:1022B0002091D5033091D6032817390739F6309786
:1022C00051F51092D8031092D703B093D603A09380
:1022D000D503BCCFD383C28340815181840F951F26
:1022E000C817D90761F44E5F5F4F88819981480F05
:1022F000591F518340838A819B8193838283211557
:10230000310509F0B0CFF093D803E093D7039ECF07
:10231000FD01DC01C0CF13821282D7CFB0E0A0E074
:10232000E4E9F1E10C948F0F8C01009751F4CB019B
:102330000E9469108C01C801CDB7DEB7E0E10C94B2
:10234000AB0FFC01E60FF71F9C0122503109E21789
:10235000F30708F49DC0D901CD91DC911197C61700
:10236000D70798F0C530D10530F3CE010497861712
:10237000970708F3C61BD70B2297C193D1936D9390
:102380007C93CF010E940511D6CF5B01AC1ABD0A28
:102390004C018C0E9D1EA091D703B091D803512CF7
:1023A000412CF12CE12C109731F58091D5039091BF
:1023B000D6038815990509F05CC04616570608F043
:1023C00058C080910C0190910D01009741F48DB798
:1023D0009EB74091100150911101841B950BE81795
:1023E000F90708F055C0F093D603E093D503F9013F
:1023F00071836083A0CF8D919C91119712966C9000
:10240000129713967C901397A815B90559F56C018E
:1024100042E0C40ED11CCA14DB0420F1AC014A19FD
:102420005B09DA011296159780F0628273825183FC
:102430004083D9016D937C93E114F10471F0D701CD
:102440001396FC93EE93129776CF22968C0F9D1FD6
:10245000F90191838083F301EFCFF093D803E093E8
:10246000D70369CF4816590608F42C017D01D30122
:102470009ACFCB010E9469107C01009749F0AE0110
:10248000B8010E944B12C8010E940511870153CF69
:1024900010E000E050CFFB01DC0102C001900D9282
:1024A00041505040D8F70895FB01DC0101900D9296
:1024B0000020E1F7089510E0CFEDD0E004C0FE0168
:1024C0000E9463102196C03ED107C9F7F894FFCF50
:1024D000320014001E000A0023000F000000D90380
:1024E000800000000000B4010B01410101027201F3
:1024F00050016401000000004A050B01F4030A01C9
:10250000000000001F030B01F4031E037B03930371
:1025100006036320002A2D2A2000467265657A6929
:102520006E672E2E2E68656C702100467265657A86
:10253000696E672E2E2E68656C70212121202A2D50
:102540002A007E6F5F6F7E200049747320686F746D
:102550002E2E2E68656C7021004973206974206AE4
:10256000757374206D65206F722069732069742003
:1025700067657474696E67207265616C6C6C6C79E8
:1025800020686F7420696E2068657265207E6F20F8
:102590005F206F7E00202D5F2D2000497473206422
:1025A00061726B2E2E2E68656C7021005370617203
:1025B0006520736F6D652073756E6C696768742034
:1025C000706C73202D5F2D0020785F7820004927E4
:1025D0006D20676F696E6720626C696E64210049C7
:1025E000276D20676F696E6720626C696E642121B8
:1025F0002120782D7800206F5F6F200049276D2003
:1026000074686972737479005768656E2077696CB5
:102610006C20746869732064726F756768742063D6
:102620006F6D6520746F20616E20656E64206F2D64
:102630006F0020545F54200049276D2064726F772B
:102640006E696E670049276D2064726F776E696EE0
:102650006720542D54005E5F5E200049742773206C
:10266000616C6C20676F6F64004974277320616C24
:0A2670006C20676F6F643A290000C8
:00000001FF
